{
    "contractName": "starNotary",
    "abi": [
        {
            "inputs": [],
            "stateMutability": "nonpayable",
            "type": "constructor"
        },
        {
            "anonymous": false,
            "inputs": [
                {
                    "indexed": false,
                    "internalType": "address",
                    "name": "owner",
                    "type": "address"
                }
            ],
            "name": "starClaimed",
            "type": "event"
        },
        {
            "inputs": [],
            "name": "claimStar",
            "outputs": [],
            "stateMutability": "nonpayable",
            "type": "function"
        },
        {
            "inputs": [],
            "name": "starName",
            "outputs": [
                {
                    "internalType": "string",
                    "name": "",
                    "type": "string"
                }
            ],
            "stateMutability": "view",
            "type": "function"
        },
        {
            "inputs": [],
            "name": "starOwner",
            "outputs": [
                {
                    "internalType": "address",
                    "name": "",
                    "type": "address"
                }
            ],
            "stateMutability": "view",
            "type": "function"
        }
    ],
    "bytecode": "608060405234801561001057600080fd5b506040805180820190915260148082527f417765736f6d652055646163697479205374617200000000000000000000000060209092019182526100559160009161005b565b506100f6565b828054600181600116156101000203166002900490600052602060002090601f016020900481019282601f1061009c57805160ff19168380011785556100c9565b828001600101855582156100c9579182015b828111156100c95782518255916020019190600101906100ae565b506100d59291506100d9565b5090565b6100f391905b808211156100d557600081556001016100df565b90565b61020d806101056000396000f3fe608060405234801561001057600080fd5b50600436106100415760003560e01c806388d5896c14610046578063a434c272146100c3578063c5946ae0146100e7575b600080fd5b61004e6100f1565b6040805160208082528351818301528351919283929083019185019080838360005b83811015610088578181015183820152602001610070565b50505050905090810190601f1680156100b55780820380516001836020036101000a031916815260200191505b509250505060405180910390f35b6100cb61017f565b604080516001600160a01b039092168252519081900360200190f35b6100ef61018e565b005b6000805460408051602060026001851615610100026000190190941693909304601f810184900484028201840190925281815292918301828280156101775780601f1061014c57610100808354040283529160200191610177565b820191906000526020600020905b81548152906001019060200180831161015a57829003601f168201915b505050505081565b6001546001600160a01b031681565b600180546001600160a01b0319163390811790915560408051918252517feb7b62b344bb3f85b6845f47ddc7878c8fc9946b9c4a4aacbd5274c883e9b66a9181900360200190a156fea2646970667358221220e9899068f41af5ca6a879569d110a37e372ac8f172808df3006ff32c6321e1e264736f6c63430006090033",
    "sourcePath": "/media/agam/Education/Blockchain/starNotaryV1/contracts/starNotary.sol",
    "compiler": {
        "name": "solc",
        "version": "0.6.9+commit.3e3065ac"
    },
    "functionHashes": {
        "claimStar()": "c5946ae0",
        "starName()": "88d5896c",
        "starOwner()": "a434c272"
    },
    "gasEstimates": {
        "creation": {
            "codeDepositCost": "105000",
            "executionCost": "infinite",
            "totalCost": "infinite"
        },
        "external": {
            "claimStar()": "22067",
            "starName()": "infinite",
            "starOwner()": "1037"
        }
    }
}